:030000000202DA1F
:0C02DA00787FE4F6D8FD75813202032124
:1003660067657420746865206B6579206E756D62AB
:1003760065723A20000D0A007772697465206E7501
:100386006D203520746F20323463303220210D0AFF
:100396000072656164206E756D2066726F6D203225
:1003A60034633032203A2000C0F9A4B0999282F822
:1003B60080908883C6A186BFC78CC1FFF7C0F9A409
:1003C600B0999282F880908883C6A1868E303132A9
:0E03D60033343536373839616263646566004A
:0805A300021D00000218000017
:10044600E4F523F522F521F5207580FF7590FF75FB
:10045600A0FF120545E4F51C850D16E51E451D7029
:1004660039E5232401F523E43522F522E43521F587
:1004760021E43520F520AF23AE22AD21FCE47B102C
:100486007A27F9F81200E2AC00AD01AE02AF038F95
:0F049600238E228D218C201204FF12017480BC52
:10054500758921758C8A758AD0D2A9D28C759850F7
:10055500438920438780758DF3758BF3D28ED2AC9A
:07056500D288D2A8D2AF2218
:0804FF008F278E268D258C2429
:10050700E4F528E47B0AFAF9F8AF27AE26AD25AC67
:10051700241200E2AF0374102528F8A607AF27AE10
:1005270026AD25AC24E47B0AFAF9F81200E28F27FE
:0D0537008E268D258C240528E528B406C6E7
:010544002294
:02058A00AD07BB
:0E058C0074102DF8E69003AE93F4FF0204A560
:10056C00D3EF9400EE940040147D2C7C01ED1D70B3
:0D057C00011CED4C70F7EF1F70E61E80E3D0
:01058900224F
:0204A500A907A5
:1004A700E4FBEBC394085015E9A803088002C333A3
:1004B700D8FC30E704D2A0802EC2A0802A74017E27
:1004C70000A805088005C333CE33CED8F9F4FFEE74
:1004D700F4FEEB24F8FCEFA804088006CEA2E7138D
:1004E700CE13D8F81392A0C2A20000D2A20BBB1061
:0704F700B1C2A10000D2A177
:0104FE0022DB
:0805AC008F993099FDC29922DC
:10000E00120026FF600C1205AC740129F9E43AFACD
:03001E0080EE224F
:0403E4008E248F25AF
:1003E80075300075310075322EAE24AF257C007D46
:1003F8000A12005174D32DF58274033CF583E493FB
:10040800AB30AA31A93212003F74FF2532F532749D
:10041800FF3531F531AE24AF257C007D0A1200513D
:100428008E248F25E525452470BFF52F042532F548
:0E04380032E43531F531AB30FAA93202000E54
:10017400E4F51B7590F07F01FE12056C85901B530E
:100184001BF0E51BC4540F44F0F4F51BB40105E463
:10019400F51F8021E51BB40205751F018017E51BBF
:1001A400B40405751F02800DE51BB40805751F0313
:1001B4008003751F1075900F7F017E0012056C85FA
:1001C400901B531B0FE51B44F0F4F51BB40105858C
:1001D4001F1F8022E51BB4020474048010E51BB4C5
:1001E400040474088007E51BB40808740C251FF583
:1001F4001F8003751F10E51FC394105047851F17F8
:100204007BFF7A03796612000EAF1F7E001203E4AF
:100214007BFF7A03797B12000EE51F70067A03795F
:100224007E801EE51FB4011C7BFF7A0379971200C0
:100234000E850816AF087E001203E47BFF7A03796B
:050244007B12000E22F8
:03000300020006F2
:05000600C2A8D2A832DF
:03000B00020249A5
:10024900C0E0C0F0C083C082C0D075D000C000C07B
:1002590001C002C003C004C005C006C007758CF404
:10026900758A480519E51970020518640A45187058
:1002790032051C531C0FF518F519E51CC3940850D9
:100289000FAF1C7401A807088002C333D8FC801083
:10029900E51C24F8FF7480A807088002C313D8FC62
:1002A900F4F580051EE51E7002051D531E07751D18
:1002B90000AF1E12058AD007D006D005D004D0039E
:1002C900D002D001D000D0D0D082D083D0F0D0E0FD
:0102D90032F2
:0300230002059A39
:09059A00309805C29885991A32C7
:1002E600020446E493A3F8E493A34003F68001F2E4
:1002F60008DFF48029E493A3F85407240CC8C33319
:10030600C4540F4420C8834004F456800146F6DFE7
:10031600E4800B01020408102040809005A3E47ECF
:10032600019360BCA3FF543F30E509541FFEE493DC
:10033600A360010ECF54C025E060A840B8E493A3A3
:10034600FAE493A3F8E493A3C8C582C8CAC583CACE
:10035600F0A3C8C582C8CAC583CADFE9DEE780BE86
:0105AB00004F
:10002600BB010689828A83E0225002E722BBFE02D8
:09003600E32289828A83E493220B
:10003F00BB010689828A83F0225002F722BBFE01A0
:02004F00F3229A
:10005100BC000BBE0029EF8DF084FFADF022E4CC93
:10006100F875F008EF2FFFEE33FEEC33FCEE9DEC5C
:10007100984005FCEE9DFE0FD5F0E9E4CEFD22EDA2
:10008100F8F5F0EE8420D21CFEADF075F008EF2FEC
:10009100FFED33FD4007985006D5F0F222C398FDDD
:0500A1000FD5F0EA227A
:1000A60075F008758200EF2FFFEE33FECD33CDCC11
:1000B60033CCC58233C5829BED9AEC99E582984094
:1000C6000CF582EE9BFEED9AFDEC99FC0FD5F0D671
:1000D600E4CEFBE4CDFAE4CCF9A88222B800C1B99B
:1000E6000059BA002DEC8BF084CFCECDFCE5F0CBD9
:1000F600F97818EF2FFFEE33FEED33FDEC33FCEB12
:1001060033FB10D703994004EB99FB0FD8E5E4F9CC
:10011600FA227818EF2FFFEE33FEED33FDEC33FCB9
:10012600C933C910D7059BE99A4007EC9BFCE99AAD
:10013600F90FD8E0E4C9FAE4CCFB2275F010EF2FF2
:10014600FFEE33FEED33FDCC33CCC833C810D707F2
:100156009BEC9AE899400AED9BFDEC9AFCE899F82D
:0E0166000FD5F0DAE4CDFBE4CCFAE4C8F922C0
:00000001FF
